:107F7600BDEF3FF0720ED36E0F0EC16E8A6A9390FC
:107F8600B00ECD6E050E006E8A80DAEC3FF08A9058
:107F9600DAEC3FF0002EF8D7020E006E8A80EDEC88
:107FA6003FF08A90EDEC3FF0002EF8D7EBD7CD905E
:107FB6002F0ECF6E700ECE6E9E90CD809EA0FED7F9
:107FC6009E90030E016E9EA0FED79E90012EFBD7BB
:107FD600CD901200CD905E0ECF6EE00ECE6E9E90CE
:107FE600CD809EA0FED79E90070E016E9EA0FED766
:0A7FF6009E90012EFBD7CD901200E3
:00000001FF
